:100000000206CAC2EAE4F5E275D18053D1FB53E29D
:10001000BFCE7400CECF7400CF8EED8FEC53EAF3D9
:10002000F5E343E22943D10175D8FF75E107D2EA30
:100030002275A15575A1AAE5B954F84404F5B9E4AF
:10004000F5A122020046C0E0C0F0C083C082C0D04B
:1000500075D00820D90302048AE5D9543F70030201
:10006000047B24E070030203EE24F06003020488A2
:1000700075DCC0AFDB900092E4F0A3EFF09000924B
:10008000E07004A3E0640860030203B7900007E097
:10009000FE900006E0FDEDFF900083EEF0A3EFF090
:1000A000900092E4F0A3F0900001E0900085F090C1
:1000B0000000E05460700302014B900085E024FED4
:1000C000604F14604C24FA24FD5046240B70399084
:1000D000008E7401F0A37400F0A37443F0900083C9
:1000E000E0FEA3E0FFC39440EE940090009240082D
:1000F000E4F0A37440F08005EEF0A3EFF0900092DE
:10010000E4F0A37402F08009900092E4F0A374FF7D
:10011000F0900092E0FEA3E0FFD3900084E09F9077
:100120000083E09E4005EEF0A3EFF0900083E0FE38
:10013000A3E0FFC39440EE9400400D7C007D40CED0
:10014000ECCECFEDCF0202AA0202AA900085E0B465
:100150000B0040030203B590015EF82828730203E8
:100160008C02033C0203B502034A0203B50202F506
:1001700002017F0203B50203010203260203C090BD
:100180000003E024FE602B14604224E170030202AD
:10019000512421600302026B90008E74FFF0A3745F
:1001A00007F0A374F0F0900092E4F0A37412F00250
:1001B000027490008E74FFF0A37408F0A37402F030
:1001C000900092E4F0A3741BF0020274900002E02D
:1001D000606624FE601C14602D14604324036003D9
:1001E00002026B90008E74FFF0A37408F0A37421D8
:1001F000803A90008E74FFF0A37408F0A3742BF083
:10020000900092E4805E90008E74FFF0A37408F07A
:10021000A3744BF0900092E4F0A3741CF08055900E
:10022000008E74FFF0A37408F0A37467F09000923E
:10023000E4F0A3740AF0803C90008E74FFF0A37485
:1002400008F0A3741DF0900092E4F0A37404F08011
:100250002390008E74FFF0A37408F0A37471F090E3
:1002600000927401F0A37420F08009900092E4F0F1
:10027000A374FFF0900092E0FEA3E0FFD39000840F
:10028000E09F900083E09E4005EEF0A3EFF0900029
:1002900083E0FEA3E0FFC39440EE9400400C7C009A
:1002A0007D40CEECCECFEDCF8000900092EEF0A35B
:1002B000EFF0900092E0FEA3E0FFC87400C8CC7499
:1002C00000CCCD7401CD90008EE0FBA3E0FAA3E05A
:1002D000F9120583900092E0FEA3E0FFC390008432
:1002E000E09FF0900083E09EF090008FEE8FF01280
:1002F00005A90203C0900002E0FF900083E402031E
:10030000AF900040E0900000F0C3900084E09401C2
:10031000900083E0940050030203C0900092E4F048
:10032000A304F00203C0900002E0900040F07003CC
:100330000203C09000917401F00203C0900000E03D
:10034000541FFFBF0202806F806D900000E0541FB9
:10035000FD701B900003E0FE900002E0FBEB6401E7
:100360004E70099008099320E556804B8049ED6452
:10037000027017900003E0FE900002E0FDED4E7069
:1003800007900004E0FD802F802D802B900000E47A
:10039000F0A3F0900083E0FEA3E0FFC39402EE948C
:1003A000009000924008E4F0A37402F08012EEF096
:1003B000A3EFF0800B8000900092E4F0A374FFF0B4
:1003C000900092E0FEA3E0FFF44E700C9000857464
:1003D000FFF075DCCF020488D3EF9440EE94005018
:1003E000048FDD800375DD0075DCC0020488900099
:1003F00085E024FB606E14707A900083E0FEA3E039
:10040000FFC39440EE9400400C7C007D40CEECCEC7
:10041000CFEDCF8000900092EEF0A3EFF09000922D
:10042000E0FEA3E0FFC87400C8CC7400CCCD74011A
:10043000CD90008EE0FBA3E0FAA3E0F912058390D3
:100440000092E0FEA3E0FFC3900084E09FF09000E4
:1004500083E09EF090008FEE8FF01205A98FDD6390
:10046000DC408024900083A3E0FFE5E354804FF557
:10047000E3800375DD0075DC02800DAFDB90009238
:10048000E4F0A3EFF063DC80C2D930D80C75DC0255
:1004900075E300C2DAC2D9C2D830DA09C2DAE5DAC5
:1004A00030E205800375D8FFD0D0D082D083D0F061
:1004B000D0E032E709F608DFFA8046E709F208DF04
:1004C000FA803E88828C83E709F0A3DFFA8032E36A
:1004D00009F608DFFA8078E309F208DFFA8070880D
:1004E000828C83E309F0A3DFFA806489828A83E047
:1004F000A3F608DFFA805889828A83E0A3F208DF36
:10050000FA804C80D280FA80C680D4806980F280E4
:1005100033801080A680EA809A80A880DA80E2800A
:10052000CA803389828A83ECFAE493A3C8C582C85F
:10053000CCC583CCF0A3C8C582C8CCC583CCDFE9C9
:10054000DEE7800D89828A83E493A3F608DFF9EC65
:10055000FAA9F0EDFB2289828A83ECFAE0A3C8C5F0
:1005600082C8CCC583CCF0A3C8C582C8CCC583CC17
:10057000DFEADEE880DB89828A83E493A3F208DF86
:10058000F980CC88F0EF60010E4E60C388F0ED2456
:1005900002B4040050B9F582EB2402B4040050AF59
:1005A000232345822390050373C5F0F8A3E028F0C8
:1005B000C5F0F8E582158270021583E038F02275E7
:1005C000F008758200EF2FFFEE33FECD33CDCC3334
:1005D000CCC58233C5829BED9AEC99E58298400C9C
:1005E000F582EE9BFEED9AFDEC99FC0FD5F0D6E47A
:1005F000CEFBE4CDFAE4CCF9A88222B800C1B90060
:1006000059BA002DEC8BF084CFCECDFCE5F0CBF9C0
:100610007818EF2FFFEE33FEED33FDEC33FCEB33B8
:10062000FB10D703994004EB99FB0FD8E5E4F9FAE6
:10063000227818EF2FFFEE33FEED33FDEC33FCC9CB
:1006400033C910D7059BE99A4007EC9BFCE99AF95E
:100650000FD8E0E4C9FAE4CCFB2275F010EF2FFFCD
:10066000EE33FEED33FDCC33CCC833C810D7079B37
:10067000EC9AE899400AED9BFDEC9AFCE899F80F9A
:10068000D5F0DAE4CDFBE4CCFAE4C8F922ECF0A32F
:10069000EDF0A3EEF0A3EFF022A8828583F0D083E3
:1006A000D0821206B01206B01206B01206B0E47381
:1006B000E493A3C583C5F0C583C8C582C8F0A3C5AC
:1006C00083C5F0C583C8C582C822787FE4F6D8FD0B
:1006D00075810F02071102079BE493A3F8E493A32B
:1006E0004003F68001F208DFF48029E493A3F85474
:1006F00007240CC8C333C4540F4420C8834004F4F7
:1007000056800146F6DFE4800B0102040810204009
:1007100080900756E47E019360BCA3FF543F30E510
:1007200009541FFEE493A360010ECF54C025E0607E
:10073000A840B8E493A3FAE493A3F8E493A3C8C54C
:1007400082C8CAC583CAF0A3C8C582C8CAC583CA3D
:10075000DFE9DEE780BE60400043070100000000E3
:100760000000000000000000000000000000000089
:100770000000000000000000000000000000000079
:100780000000000000000000000000000000000069
:1007900000000000000000000000001200317F0592
:1007A0007E001207C9120003D2AFE4900042F0901D
:1007B0000091F0900091E060077F647E001207C90D
:1007C0007F647E001207C980EACDEFCDCCEECCED80
:1007D0004C600E7FE87E031207E2ED1D70F11C8075
:1007E000EE22EF4E600905A1EF1F70F61E80F32286
:1007F0001201100100000040B23801800100010226
:10080000030109022900010100A0320904000000CF
:100810000300000009210001000122200104030956
:10082000040A034D005A00590037002003550053B5
:1008300000420020004800490044002000420061BE
:1008400000740074006500720079001C03540053AA
:1008500000480045002D00300030003100310034E8
:10086000003500310034000A034C0049004F004EAF
:100870000005840904A1010924A102750895011548
:100880000026FF00850109FE7902B123850209FFD8
:100890007903B123850309FD7901B1230585850617
:1008A000098BB123851F09897904B1238520098F1C
:1008B0007900B1238516092CB1238510098D266492
:1008C00000B1228518098EB123850E0967B1838591
:1008D000170983B183850C096681A30966B1A385D5
:1008E0001A096A27FFFF00006601105500B1A385B1
:1008F0001C096981A30969B1A3850D096881A30950
:1009000068B1A3850B093081A30930B1A385070520
:1009100085094475011500250181A30944B1A30986
:100920004581A30945B1A309D081A309D0B1A30989
:10093000D181A309D1B1A3094281A30942B1A3097D
:100940004381A20943B1A2094B81A3094BB1A30979
:10095000DB81A309DBB1A3094681A30946B1A30941
:100960004781A30947B1A30584096881A20968B139
:10097000A2096981A30969B1A3097381A30973B1AC
:10098000A3096581A30965B1A395028101B101C0E5
:01099000C0A6
:00000001FF
