:10000000020774C2EAE4F5E275D18053D1FB53E2F2
:10001000BFCE7400CECF7440CF8EE58FE443EB0C9F
:1000200053EBFECE7400CECF7400CF8EED8FEC5329
:10003000EAF3F5E343E22943D10175D8FF75E107FF
:10004000D2EA22020046C0E0C0F0C083C082C0D025
:1000500075D00820D90302052CE5D9543F7003025E
:10006000051D24FE602824E2700302049024F06041
:1000700067240E600302052A75D50063D440900101
:100080000EE4F0E5D454FC4402F5D402052A20DE47
:100090000302052AAFDB900113E4F0A3EFF063D471
:1000A00080E4FFEFFD900113E0FAA3E0FBD39DEAAB
:1000B0009400401C74402FF582E43400F583E0F492
:1000C000FE74802FF582E43400F583EEF00F80D3C8
:1000D0008BD553D4FC02052A75DCC0AFDB9001132D
:1000E000E4F0A3EFF0900113E07004A3E064086073
:1000F00003020459900007E0FE900006E0FDEDFFCA
:10010000900103EEF0A3EFF0900113E4F0A3F09060
:100110000001E0900105F0900000E05460700302DF
:1001200001AA900105E024FE604614604324FA24ED
:10013000FD503D240B703090010F7401F0A374004A
:10014000F0A374C3F0900103E0FEA3E0FFC394406A
:10015000EE94009001134008E4F0A37440F0801086
:10016000EEF0A3EFF08009900113E4F0A374FFF028
:10017000900113E0FEA3E0FFD3900104E09F900103
:1001800003E09E4005EEF0A3EFF0900103E0FEA334
:10019000E0FFC39440EE9400400D7C007D40CEEC27
:1001A000CECFEDCF020309020309900105E0B40BA5
:1001B0000040030204579001BDF828287302042E62
:1001C00002039B0204570203C502045702035402B0
:1001D00001DE0204570203600203850204629000FC
:1001E00003E024FE602B14604224E170030202B09D
:1001F000242160030202CA90010F74FFF0A3740867
:10020000F0A37488F0900113E4F0A37412F00202DA
:10021000D390010F74FFF0A37408F0A3749AF090C8
:100220000113E4F0A37429F00202D3900002E0600D
:100230006624FE601C14602D1460432403600302D6
:1002400002CA90010F74FFF0A37408F0A374C78072
:100250003A90010F74FFF0A37408F0A374D1F090EA
:100260000113E4805E90010F74FFF0A37408F0A303
:1002700074F1F0900113E4F0A3741CF08055900128
:100280000F74FFF0A37409F0A3740DF0900113E450
:10029000F0A3740AF0803C90010F74FFF0A374087F
:1002A000F0A374C3F0900113E4F0A37404F080236E
:1002B00090010F74FFF0A37409F0A37417F090017C
:1002C000137401F0A37420F08009900113E4F0A3EB
:1002D00074FFF0900113E0FEA3E0FFD3900104E06F
:1002E0009F900103E09E4005EEF0A3EFF090010324
:1002F000E0FEA3E0FFC39440EE9400400C7C007D40
:1003000040CEECCECFEDCF8000900113EEF0A3EF06
:10031000F0900113E0FEA3E0FFC87400C8CC7400A5
:10032000CCCD7401CD90010FE0FBA3E0FAA3E0F97E
:1003300012062D900113E0FEA3E0FFC3900104E03C
:100340009FF0900103E09EF0900110EE8FF01206F6
:1003500053020462900002E0FF900103E4020451A2
:100360009000C0E0900000F0C3900104E094019080
:100370000103E094005003020462900113E4F0A32F
:1003800004F0020462900002E09000C0F0700302EA
:1003900004629001127401F0020462900000E054C3
:1003A0001FFFBF021D900004E024FE600F24807038
:1003B00036E5D454BC4402F5D402046253D473022B
:1003C0000462020459900000E0541FFD701B90006D
:1003D00003E0FE900002E0FBEB64014E7009900820
:1003E000A19320E57D80728070ED6402703E9000E4
:1003F00003E0FE900002E0FDED4E702E900005E05F
:10040000FE900004E0FDEDFFEE701DEF24FE600E97
:1004100024807014E5D454BF4403F5D48044E5D45B
:10042000547F440CF5D4803A802F802D802B90008F
:1004300000E4F0A3F0900103E0FEA3E0FFC3940208
:10044000EE94009001134008E4F0A37402F08012CF
:10045000EEF0A3EFF0800B8000900113E4F0A374A2
:10046000FFF0900113E0FEA3E0FFF44E700C90014A
:100470000574FFF075DCCF02052AD3EF9440EE94AB
:100480000050048FDD800375DD0075DCC002052A95
:10049000900105E024FB606E14707A900103E0FE89
:1004A000A3E0FFC39440EE9400400C7C007D40CE5E
:1004B000ECCECFEDCF8000900113EEF0A3EFF090E3
:1004C0000113E0FEA3E0FFC87400C8CC7400CCCDDB
:1004D0007401CD90010FE0FBA3E0FAA3E0F912064E
:1004E0002D900113E0FEA3E0FFC3900104E09FF014
:1004F000900103E09EF0900110EE8FF01206538FF2
:10050000DD63DC408024900103A3E0FFE5E3548039
:100510004FF5E3800375DD0075DC02800DAFDB90E5
:100520000113E4F0A3EFF063DC80C2D930D8147576
:10053000DC0275D40275E300C2DAC2D990010EE480
:10054000F0C2D830DA09C2DAE5DA30E205800375A4
:10055000D8FFD0D0D082D083D0F0D0E032E709F6F7
:1005600008DFFA8046E709F208DFFA803E88828CCD
:1005700083E709F0A3DFFA8032E309F608DFFA80A7
:1005800078E309F208DFFA807088828C83E309F04F
:10059000A3DFFA806489828A83E0A3F608DFFA8009
:1005A0005889828A83E0A3F208DFFA804C80D280E7
:1005B000FA80C680D4806980F28033801080A68063
:1005C000EA809A80A880DA80E280CA803389828AB1
:1005D00083ECFAE493A3C8C582C8CCC583CCF0A34E
:1005E000C8C582C8CCC583CCDFE9DEE7800D89822F
:1005F0008A83E493A3F608DFF9ECFAA9F0EDFB2275
:1006000089828A83ECFAE0A3C8C582C8CCC583CCB2
:10061000F0A3C8C582C8CCC583CCDFEADEE880DBA6
:1006200089828A83E493A3F208DFF980CC88F0EF13
:1006300060010E4E60C388F0ED2402B4040050B98E
:10064000F582EB2402B4040050AF232345822390AB
:1006500005AD73C5F0F8A3E028F0C5F0F8E5821504
:100660008270021583E038F02275F008758200EF81
:100670002FFFEE33FECD33CDCC33CCC58233C582D4
:100680009BED9AEC99E58298400CF582EE9BFEED8D
:100690009AFDEC99FC0FD5F0D6E4CEFBE4CDFAE45C
:1006A000CCF9A88222B800C1B90059BA002DEC8B50
:1006B000F084CFCECDFCE5F0CBF97818EF2FFFEE2C
:1006C00033FEED33FDEC33FCEB33FB10D7039940E5
:1006D00004EB99FB0FD8E5E4F9FA227818EF2FFF25
:1006E000EE33FEED33FDEC33FCC933C910D7059B67
:1006F000E99A4007EC9BFCE99AF90FD8E0E4C9FAC3
:10070000E4CCFB2275F010EF2FFFEE33FEED33FD4E
:10071000CC33CCC833C810D7079BEC9AE899400A71
:10072000ED9BFDEC9AFCE899F80FD5F0DAE4CDFBEF
:10073000E4CCFAE4C8F922ECF0A3EDF0A3EEF0A3C8
:10074000EFF022A8828583F0D083D08212075A125C
:10075000075A12075A12075AE473E493A3C583C5D4
:10076000F0C583C8C582C8F0A3C583C5F0C583C8DA
:10077000C582C822787FE4F6D8FD75810F0207BBD9
:10078000020800E493A3F8E493A34003F68001F287
:1007900008DFF48029E493A3F85407240CC8C3337A
:1007A000C4540F4420C8834004F456800146F6DF49
:1007B000E4800B0102040810204080900883E47E4E
:1007C000019360BCA3FF543F30E509541FFEE4933E
:1007D000A360010ECF54C025E060A840B8E493A305
:1007E000FAE493A3F8E493A3C8C582C8CAC583CA30
:1007F000F0A3C8C582C8CAC583CADFE9DEE780BEE8
:100800001208637F057E0012084AE4FF74C32FF5C7
:1008100082E43400F583EFF00FEFB440EF120003F1
:10082000D2AFE4F5D3F5D59000C2F0900112F0906C
:100830000112E0600C90010EE070FA7F64FE120875
:100840004A7F647E0012084A80E5CDEFCDCCEECC25
:10085000ED4C600E7FE87E03120875ED1D70F11CF3
:1008600080EE2275A15575A1AAE5B954F84404F5A6
:10087000B9E4F5A122EF4E600905A1EF1F70F61E45
:1008800080F32241010E000012011001000000401F
:10089000B2380180010001020301090229000101AF
:1008A00000A0320904000002030000000921000139
:1008B0000001222001070582034000FF0705020313
:1008C0004000FF040309040A034D005A0059003791
:1008D0000020035500530042002000480049004416
:1008E000002000420061007400740065007200790D
:1008F000001C0354005300480045002D0030003018
:10090000003100310034003500310034000A034C5E
:100910000049004F004E0005840904A1010924A1EB
:100920000275089501150026FF00850109FE790270
:10093000B123850209FF7903B123850309FD7901FC
:10094000B12305858506098BB123851F09897904A3
:10095000B1238520098F7900B1238516092CB12395
:100960008510098D266400B1228518098EB1238572
:100970000E0967B18385170983B183850C096681E8
:10098000A30966B1A3851A096A27FFFF0000660163
:10099000105500B1A3851C096981A30969B1A3851C
:1009A0000D096881A30968B1A3850B093081A309EA
:1009B00030B1A3850705850944750115002501811E
:1009C000A30944B1A3094581A30945B1A309D08175
:1009D000A309D0B1A309D181A309D1B1A30942814F
:1009E000A30942B1A3094381A20943B1A2094B81E2
:1009F000A3094BB1A309DB81A309DBB1A30946819C
:100A0000A30946B1A3094781A30947B1A3058409F6
:100A10006881A20968B1A2096981A30969B1A30922
:100A20007381A30973B1A3096581A30965B1A39576
:070A3000028101B101C0C009
:00000001FF
