:1000000002079BC2EAE4F5E275D18053D1FB53E2CB
:10001000BFCE7400CECF7440CF8EE58FE443EB0C9F
:1000200053EBFECE7400CECF7400CF8EED8FEC5329
:10003000EAF3F5E343E22943D10175D8FF75E107FF
:10004000D2EA22020046C0E0C0F0C083C082C0D025
:1000500075D00820D903020553E5D9543F70030237
:10006000054424FE602824E270030204B324F060F7
:1000700067240E600302055175D50063D4409001DA
:100080000EE4F0E5D454FC4402F5D402055120DE20
:1000900003020551AFDB900113E4F0A3EFF063D44A
:1000A00080E4FFEFFD900113E0FAA3E0FBD39DEAAB
:1000B0009400401C74402FF582E43400F583E0F492
:1000C000FE74802FF582E43400F583EEF00F80D3C8
:1000D0008BD553D4FC02055175DCC0AFDB90011306
:1000E000E4F0A3EFF0900113E07004A3E064086073
:1000F0000302047C900007E0FE900006E0FDEDFFA7
:10010000900103EEF0A3EFF0900113E4F0A3F09060
:100110000001E0900105F0900000E05460700302DF
:1001200001AA900105E024FE604614604324FA24ED
:10013000FD503D240B703090010F7401F0A374004A
:10014000F0A374C3F0900103E0FEA3E0FFC394406A
:10015000EE94009001134008E4F0A37440F0801086
:10016000EEF0A3EFF08009900113E4F0A374FFF028
:10017000900113E0FEA3E0FFD3900104E09F900103
:1001800003E09E4005EEF0A3EFF0900103E0FEA334
:10019000E0FFC39440EE9400400D7C007D40CEEC27
:1001A000CECFEDCF02030E02030E900105E0B40B9B
:1001B00000400302047A9001BDF82828730204511C
:1001C0000203A002047A0203D802047A020359024D
:1001D00001DE02047A02036502038A0204859000AC
:1001E00003E024FE602B14604224E170030202B598
:1001F000242160030202CF90010F74FFF0A3740862
:10020000F0A374AFF0900113E4F0A37412F00202B3
:10021000D890010F74FFF0A37408F0A374C1F0909C
:100220000113E4F0A37429F00202D8900002E06008
:100230006B24FE601C1460321460482403600302C7
:1002400002CF90010F74FFF0A37408F0A374EE8046
:100250003F90010F74FFF0A37408F0A374F8F090BE
:100260000113E4F0A37420F0806E90010F74FFF08E
:10027000A37409F0A37418F0900113E4F0A3741CA4
:10028000F0805590010F74FFF0A37409F0A374344B
:10029000F0900113E4F0A3740AF0803C90010F7415
:1002A000FFF0A37408F0A374EAF0900113E4F0A344
:1002B0007404F0802390010F74FFF0A37409F0A37D
:1002C000743EF09001137401F0A37477F0800990EC
:1002D0000113E4F0A374FFF0900113E0FEA3E0FF2C
:1002E000D3900104E09F900103E09E4005EEF0A34F
:1002F000EFF0900103E0FEA3E0FFC39440EE940012
:10030000400C7C007D40CEECCECFEDCF8000900144
:1003100013EEF0A3EFF0900113E0FEA3E0FFC8742A
:1003200000C8CC7400CCCD7401CD90010FE0FBA3CC
:10033000E0FAA3E0F9120654900113E0FEA3E0FFF7
:10034000C3900104E09FF0900103E09EF090011043
:10035000EE8FF012067A020485900002E0FF900111
:1003600003E40204749000C0E0900000F0C3900128
:1003700004E09401900103E094005003020485908E
:100380000113E4F0A304F0020485900002E0900061
:10039000C0F070030204859001127401F00204851C
:1003A000900000E0541F6402702B900004E024FED3
:1003B000601D2481600E147044E5D454BC4402F5E1
:1003C000D4020485E5D254BC4402F5D2020485531C
:1003D000D47302048502047C900000E0541FFD7079
:1003E0001E900003E0FE900002E0FBEB64014E7003
:1003F0000C9008C89330E503020485807F807DED72
:100400006402704B900003E0FE900002E0FDED4EB0
:10041000703B900005E0FE900004E0FDEDFFEE7003
:100420002AEF24FE60112481601714701EE5D45455
:10043000BF4403F5D4804EE5D4547F440CF5D480FA
:1004400044E5D254BF4403F5D2803A802F802D80FA
:100450002B900000E4F0A3F0900103E0FEA3E0FF86
:10046000C39402EE94009001134008E4F0A37402D8
:10047000F08012EEF0A3EFF0800B8000900113E407
:10048000F0A374FFF0900113E0FEA3E0FFF44E70C0
:100490000C90010574FFF075DCCF020551D3EF9489
:1004A00040EE940050048FDD800375DD0075DCC0E4
:1004B000020551900105E024FB60721460042405DC
:1004C000707A900103E0FEA3E0FFC39440EE940035
:1004D000400C7C007D40CEECCECFEDCF8000900173
:1004E00013EEF0A3EFF0900113E0FEA3E0FFC87459
:1004F00000C8CC7400CCCD7401CD90010FE0FBA3FB
:10050000E0FAA3E0F9120654900113E0FEA3E0FF25
:10051000C3900104E09FF0900103E09EF090011071
:10052000EE8FF012067A8FDD63DC408024900103A9
:10053000A3E0FFE5E354804FF5E3800375DD00752C
:10054000DC02800DAFDB900113E4F0A3EFF063DC7D
:1005500080C2D930D81475DC0275D40275E300C2AC
:10056000DAC2D990010EE4F0C2D830DA09C2DAE575
:10057000DA30E205800375D8FFD0D0D082D083D0A6
:10058000F0D0E032E709F608DFFA8046E709F20822
:10059000DFFA803E88828C83E709F0A3DFFA80329D
:1005A000E309F608DFFA8078E309F208DFFA8070E1
:1005B00088828C83E309F0A3DFFA806489828A83CE
:1005C000E0A3F608DFFA805889828A83E0A3F20864
:1005D000DFFA804C80D280FA80C680D4806980F2B5
:1005E0008033801080A680EA809A80A880DA80E23A
:1005F00080CA803389828A83ECFAE493A3C8C582D7
:10060000C8CCC583CCF0A3C8C582C8CCC583CCDF19
:10061000E9DEE7800D89828A83E493A3F608DFF997
:10062000ECFAA9F0EDFB2289828A83ECFAE0A3C8F8
:10063000C582C8CCC583CCF0A3C8C582C8CCC5834D
:10064000CCDFEADEE880DB89828A83E493A3F208C8
:10065000DFF980CC88F0EF60010E4E60C388F0EDCA
:100660002402B4040050B9F582EB2402B404005013
:10067000AF23234582239005D473C5F0F8A3E02867
:10068000F0C5F0F8E582158270021583E038F0229B
:1006900075F008758200EF2FFFEE33FECD33CDCC21
:1006A00033CCC58233C5829BED9AEC99E5829840A4
:1006B0000CF582EE9BFEED9AFDEC99FC0FD5F0D681
:1006C000E4CEFBE4CDFAE4CCF9A88222B800C1B9AB
:1006D0000059BA002DEC8BF084CFCECDFCE5F0CBE9
:1006E000F97818EF2FFFEE33FEED33FDEC33FCEB22
:1006F00033FB10D703994004EB99FB0FD8E5E4F9DD
:10070000FA227818EF2FFFEE33FEED33FDEC33FCC9
:10071000C933C910D7059BE99A4007EC9BFCE99ABD
:10072000F90FD8E0E4C9FAE4CCFB2275F010EF2F02
:10073000FFEE33FEED33FDCC33CCC833C810D70702
:100740009BEC9AE899400AED9BFDEC9AFCE899F83D
:100750000FD5F0DAE4CDFBE4CCFAE4C8F922ECF0F2
:10076000A3EDF0A3EEF0A3EFF022A8828583F0D0F2
:1007700083D082120781120781120781120781E458
:1007800073E493A3C583C5F0C583C8C582C8F0A32D
:10079000C583C5F0C583C8C582C822787FE4F6D872
:1007A000FD75810F0207E2020827E493A3F8E493A2
:1007B000A34003F68001F208DFF48029E493A3F854
:1007C0005407240CC8C333C4540F4420C8834004C6
:1007D000F456800146F6DFE4800B01020408102085
:1007E00040809008AAE47E019360BCA3FF543F3090
:1007F000E509541FFEE493A360010ECF54C025E029
:1008000060A840B8E493A3FAE493A3F8E493A3C8E0
:10081000C582C8CAC583CAF0A3C8C582C8CAC58371
:10082000CADFE9DEE780BE12088A7F057E00120873
:1008300071E4FF74C32FF582E43400F583EFF00F09
:10084000EFB440EF120003D2AFE4F5D3F5D590003A
:10085000C2F0900112F0900112E0600C90010EE0E5
:1008600070FA7F64FE1208717F647E001208718046
:10087000E5CDEFCDCCEECCED4C600E7FE87E0312E3
:10088000089CED1D70F11C80EE2275A15575A1AA82
:10089000E5B954F84404F5B9E4F5A122EF4E600936
:1008A00005A1EF1F70F61E80F32241010E00001219
:1008B00001100100000040B2380180010001020374
:1008C0000109022900010100A0320904000002030D
:1008D00000000009210001000122770107058203C1
:1008E00040000107050203400001040309040A0354
:1008F0004D005A00590037002003550053004200B4
:1009000020004800490044002000420061007400BB
:1009100074006500720079001C0354005300480005
:1009200045002D003000300031003100340035002A
:10093000310034000A034C0049004F004E0005848A
:100940000904A1010924A10275089501150026FFDB
:1009500000850109FE7902B123850209FF7903B1FF
:1009600023850309FD7901B12305858506098BB12E
:1009700023851F09897904B1238520098F7900B166
:10098000238516092CB1238510098D266400B12218
:100990008518098EB123850E0967B18385170983F0
:1009A000B183850C096681A30966B1A3850F098C03
:1009B000B1A285110929B1A285090985751027FF02
:1009C000FF0000B1A3851A096A27FFFF0000660136
:1009D000105500B1A3851C096981A30969B1A385DC
:1009E0000D096881A30968B1A38508092A75102734
:1009F000640500001678008122092AB1A2058485C9
:100A000012095716008027FF7F0000B1A285130945
:100A100055B1A2850A0940150027FFFF0000672194
:100A2000D1F0005505B123850B093081A30930B100
:100A3000A385070585094475011500250181A309D2
:100A400044B1A3094581A30945B1A309D081A309F4
:100A5000D0B1A309D181A309D1B1A3094281A309CE
:100A600042B1A3094381A20943B1A2094B81A30961
:100A70004BB1A309DB81A309DBB1A3094681A3091B
:100A800046B1A3094781A30947B1A3058409688139
:100A9000A20968B1A2096981A30969B1A309738197
:100AA000A30973B1A3096581A30965B1A395028167
:050AB00001B101C0C00E
:00000001FF
