:100000000207FC1208FA7F057E001208E112088838
:10001000D2AFE4F5D5900042F09000A0F09000A09F
:10002000E060077F647E001208E17F647E001208B2
:10003000E180EAEF4E600905A1EF1F70F61E80F324
:01004000229D
:10004300020046C0E0C0F0C083C082C0D075D008B3
:1000530020D903020596E5D9543F7003020587248E
:10006300E070030204FA24F0600302059475DCC017
:10007300AFDB9000A1E4F0A3EFF09000A1E07004E7
:10008300A3E0640860030204C3900007E0FE90004D
:1000930006E0FDEDFF900048EEF0A3EFF09000A125
:1000A300E4F0A3F0900001E090004FF0900000E036
:1000B3005460700302025290004FE024FE7003026A
:1000C300021814700302021824FA24FD40030202EA
:1000D30018240B600302020F900002E0FF1207D600
:1000E30001330601080701490A016A0B01B50C0136
:1000F3001C0D019E0E01CC10013616018B1701CC8D
:1001030018000001E6900050EFF090009EE0A3E09D
:10011300900051F090009E8042900002E0900050C9
:10012300F0900099E0A3E0900051F0900099802BAB
:100133000201CC900002E0900050F0A37402F09012
:10014300009B140201DB900002E0900050F090004D
:1001530043E0A3E0900051F0900043E0900052F0A0
:1001630090009B74018071900002E0900050F09029
:100173000046E0A3E0900051F0900046E09000526A
:10018300F090009B74018050900002E0900050F0CA
:10019300A37464F090009B7401803D900002E09092
:1001A3000050F0900090E0900051F090009B74019B
:1001B3008026900002E0900050F090004CE0900008
:1001C30051F090009B7401800F900002E09000506A
:1001D300F0A37401F090009BF0A37400F0A374509B
:1001E300F080079000A1E4F0A3F0900048E0FEA3A4
:1001F300E0FFC39440EE94009000A14008E4F0A314
:100203007440F08010EEF0A3EFF080099000A1E4B9
:10021300F0A374FFF09000A1E0FEA3E0FFD39000F1
:1002230049E09F900048E09E4005EEF0A3EFF09078
:100233000048E0FEA3E0FFC39440EE9400400D7C31
:10024300007D40CEECCECFEDCF0203B60203B690D5
:10025300004FE0B40B0040030204C1900265F8288C
:1002630028730204980204480204C10204560204DB
:10027300C10204010202860204C102040D02043217
:100283000204CC900003E024FE602B14604224E1BE
:10029300700302035D2421600302037790009B74C3
:1002A300FFF0A37409F0A3740CF09000A1E4F0A391
:1002B3007412F002038090009B74FFF0A37409F0A2
:1002C300A3741EF09000A1E4F0A3741BF00203805A
:1002D300900002E0606B24FE601C146032146048DE
:1002E3002403600302037790009B74FFF0A3740957
:1002F300F0A3743D803F90009B74FFF0A37409F05A
:10030300A37447F09000A1E4F0A37420F0806E90F2
:10031300009B74FFF0A37409F0A37467F09000A12D
:10032300E4F0A3741CF0805590009B74FFF0A37459
:1003330009F0A37483F09000A1E4F0A3740AF080A1
:100343003C90009B74FFF0A37409F0A37439F09000
:1003530000A1E4F0A37404F0802390009B74FFF0E9
:10036300A37409F0A3748DF09000A17401F0A37439
:1003730043F080099000A1E4F0A374FFF09000A182
:10038300E0FEA3E0FFD3900049E09F900048E09E89
:100393004005EEF0A3EFF0900048E0FEA3E0FFC3BA
:1003A3009440EE9400400C7C007D40CEECCECFED2B
:1003B300CF80009000A1EEF0A3EFF09000A1E0FE4B
:1003C300A3E0FFC87400C8CC7400CCCD7401CD90F9
:1003D300009BE0FBA3E0FAA3E0F912068F9000A1D3
:1003E300E0FEA3E0FFC3900049E09FF0900048E0E7
:1003F3009EF090009CEE8FF01206B50204CC9000A4
:1004030002E0FF900048E40204BB900040E090004B
:1004130000F0C3900049E09401900048E09400503C
:10042300030204CC9000A1E4F0A304F00204CC90F6
:100433000002E0900040F070030204CC9000A0742E
:1004430001F00204CC900000E0541FFFBF020280C1
:100453006F806D900000E0541FFD701B900003E05F
:10046300FE900002E0FBEB64014E700990092593B6
:1004730020E556804B8049ED64027017900003E03D
:10048300FE900002E0FDED4E7007900004E0FD8059
:100493002F802D802B900000E4F0A3F0900048E023
:1004A300FEA3E0FFC39402EE94009000A14008E491
:1004B300F0A37402F08012EEF0A3EFF0800B800043
:1004C3009000A1E4F0A374FFF09000A1E0FEA3E08C
:1004D300FFF44E700C90004F74FFF075DCCF0205F3
:1004E30094D3EF9440EE940050048FDD800375DDC8
:1004F3000075DCC002059490004FE024FB606E148D
:10050300707A900048E0FEA3E0FFC39440EE9400AD
:10051300400C7C007D40CEECCECFEDCF8000900030
:10052300A1EEF0A3EFF09000A1E0FEA3E0FFC874FA
:1005330000C8CC7400CCCD7401CD90009BE0FBA32C
:10054300E0FAA3E0F912068F9000A1E0FEA3E0FF1A
:10055300C3900049E09FF0900048E09EF090009C1B
:10056300EE8FF01206B58FDD63DC408024900048E7
:10057300A3E0FFE5E354804FF5E3800375DD0075E9
:10058300DC02800DAFDB9000A1E4F0A3EFF063DCAD
:1005930080C2D930D80C75DC0275E300C2DAC2D947
:1005A300C2D830DA09C2DAE5DA30E205800375D859
:1005B300FFD0D0D082D083D0F0D0E032E709F60864
:1005C300DFFA8046E709F208DFFA803E88828C83EF
:1005D300E709F0A3DFFA8032E309F608DFFA80784F
:1005E300E309F208DFFA807088828C83E309F0A3C1
:1005F300DFFA806489828A83E0A3F608DFFA8058F1
:1006030089828A83E0A3F208DFFA804C80D280FAE1
:1006130080C680D4806980F28033801080A680EA0F
:10062300809A80A880DA80E280CA803389828A83B4
:10063300ECFAE493A3C8C582C8CCC583CCF0A3C8A5
:10064300C582C8CCC583CCDFE9DEE7800D89828A09
:1006530083E493A3F608DFF9ECFAA9F0EDFB228912
:10066300828A83ECFAE0A3C8C582C8CCC583CCF0E8
:10067300A3C8C582C8CCC583CCDFEADEE880DB89AA
:10068300828A83E493A3F208DFF980CC88F0EF60D9
:10069300010E4E60C388F0ED2402B4040050B9F596
:1006A30082EB2402B4040050AF2323458223900637
:1006B3000F73C5F0F8A3E028F0C5F0F8E5821582C2
:1006C30070021583E038F02275F008758200EF2F71
:1006D300FFEE33FECD33CDCC33CCC58233C5829B05
:1006E300ED9AEC99E58298400CF582EE9BFEED9A2B
:1006F300FDEC99FC0FD5F0D6E4CEFBE4CDFAE4CCC7
:10070300F9A88222B800C1B90059BA002DEC8BF0C8
:1007130084CFCECDFCE5F0CBF97818EF2FFFEE3385
:10072300FEED33FDEC33FCEB33FB10D703994004B0
:10073300EB99FB0FD8E5E4F9FA227818EF2FFFEED7
:1007430033FEED33FDEC33FCC933C910D7059BE908
:100753009A4007EC9BFCE99AF90FD8E0E4C9FAE464
:10076300CCFB2275F010EF2FFFEE33FEED33FDCC03
:1007730033CCC833C810D7079BEC9AE899400AEDED
:100783009BFDEC9AFCE899F80FD5F0DAE4CDFBE495
:10079300CCFAE4C8F922ECF0A3EDF0A3EEF0A3EF5A
:1007A300F022A8828583F0D083D0821207BC12077F
:1007B300BC1207BC1207BCE473E493A3C583C5F062
:1007C300C583C8C582C8F0A3C583C5F0C583C8C5A2
:1007D30082C822D083D082F8E4937012740193709C
:1007E3000DA3A393F8740193F5828883E4737402D1
:1007F300936860EFA3A3A380DF787FE4F6D8FD7549
:10080300810F020843020003E493A3F8E493A34097
:1008130003F68001F208DFF48029E493A3F8540778
:10082300240CC8C333C4540F4420C8834004F45673
:10083300800146F6DFE4800B0102040810204080AB
:100843009008B6E47E019360BCA3FF543F30E509F2
:10085300541FFEE493A360010ECF54C025E060A8AB
:1008630040B8E493A3FAE493A3F8E493A3C8C5823E
:10087300C8CAC583CAF0A3C8C582C8CAC583CADFAC
:10088300E9DEE780BEC2EAE4F5E275D18053D1FB2D
:1008930053E2BFCE7400CECF7400CF8EED8FEC53F6
:1008A300EAF3F5E343E22943D10175D8FF75E10784
:1008B300D2EA224100450042009E0008420099000E
:1008C3000042004A000042004D000042004304562B
:1008D30042004604564100906441004C4C00CDEF69
:1008E300CDCCEECCED4C600E7FE87E03120033EDF1
:1008F3001D70F11C80EE2275A15575A1AAE5B954AE
:10090300F84404F5B9E4F5A1221201100100000036
:1009130040B238018001000102030109021B0001FA
:1009230001008032090400000003000000092100D7
:10093300010001224301040309040A034D005A0084
:10094300590037002003550053004200200048009F
:1009530049004400200042006100740074006500F7
:10096300720079001C0354005300480045002D0019
:1009730030003000310031003400350031003400E4
:100983000A034C0049004F004E0005840904A101ED
:100993000924A10275089501150026FF00850109A8
:1009A300FE7902B123850209FF7903B12385030987
:1009B300FD7901B12305858506098BB123851F09BF
:1009C300897904B1238520098F7900B1238516091C
:1009D3002CB1238510098D266400B1228518098E58
:1009E300B123850E0967B18385170983B183850C0C
:1009F300096681A30966B1A3851A096A751027FFE1
:100A0300FF00006601105500B1A3851C096981A38D
:100A13000969B1A3850D096881A30968B1A3058498
:100A2300850A09407510150027FFFF00006721D1D3
:100A3300F0005505B123850B093081A30930B1A31B
:100A43000902A102850705850944750115002501E1
:100A53006500550081A30944B1A3094581A3094554
:100A6300B1A309D081A309D0B1A309D181A309D12D
:100A7300B1A3094281A30942B1A3094381A2094356
:100A8300B1A2094B81A3094BB1A309DB81A309DB04
:100A9300B1A3094681A30946B1A3094781A3094725
:100AA300B1A30584096881A20968B1A2096981A378
:100AB3000969B1A3097381A30973B1A3096581A36B
:0D0AC3000965B1A395028101B101C0C0C059
:00000001FF
