:100000000206DC12082D7F057E001208141207B1CB
:10001000D2AFE4F5D5900082F09000D2F09000D2FB
:10002000E060129000CEE070FA04F01207F47F64F2
:0E0030007E001208147F647E0012081480DF28
:10004300020046C0E0C0F0C083C082C0D075D008B3
:1000530020D903020494E5D9543F70030204852494
:10006300E070030203F824F0601D240E6003020411
:100073009275D50063D4409000CEE4F0E5D454FCEF
:100083004402F5D402049275DCC0AFDB9000D3E4E4
:10009300F0A3EFF09000D3E07004A3E064086003E2
:1000A3000203C1900007E0FE900006E0FDEDFF9023
:1000B30000C3EEF0A3EFF09000D3E4F0A3F09000C0
:1000C30001E09000C5F0900000E05460605490009F
:1000D300C5E01424FD501124FB24FD500B80009037
:1000E30000D3E4F0A374FFF09000D3E0FEA3E0FF9D
:1000F300D39000C4E09F9000C3E09E4005EEF0A3C0
:10010300EFF09000C3E0FEA3E0FFC39440EE940041
:10011300400D7C007D40CEECCECFEDCF02028902B4
:1001230002899000C5E0B40B0040030203BF9001B5
:1001330038F828287302039602031B0203BF020345
:100143003B0203BF0202D40201590203BF0202E0D1
:100153000203050203CA900003E024FE602B14602F
:100163004224E170030202302421600302024A9018
:1001730000CF74FFF0A37408F0A3744DF09000D384
:10018300E4F0A37412F00202539000CF74FFF0A3C3
:100193007408F0A3745FF09000D3E4F0A37422F02A
:1001A300020253900002E0606B24FE601C14603274
:1001B3001460482403600302024A9000CF74FFF0E6
:1001C300A37408F0A37485803F9000CF74FFF0A35D
:1001D3007408F0A3748FF09000D3E4F0A37420F0BC
:1001E300806E9000CF74FFF0A37408F0A374AFF097
:1001F3009000D3E4F0A3741CF080559000CF74FFFB
:10020300F0A37408F0A374CBF09000D3E4F0A374CC
:100213000AF0803C9000CF74FFF0A37408F0A3743D
:1002230081F09000D3E4F0A37404F080239000CF16
:1002330074FFF0A37408F0A374D5F09000D3740195
:10024300F0A37461F080099000D3E4F0A374FFF08D
:100253009000D3E0FEA3E0FFD39000C4E09F9000A2
:10026300C3E09E4005EEF0A3EFF09000C3E0FEA3D1
:10027300E0FFC39440EE9400400C7C007D40CEEC44
:10028300CECFEDCF80009000D3EEF0A3EFF090003F
:10029300D3E0FEA3E0FFC87400C8CC7400CCCD74D7
:1002A30001CD9000CFE0FBA3E0FAA3E0F91205959E
:1002B3009000D3E0FEA3E0FFC39000C4E09FF09062
:1002C30000C3E09EF09000D0EE8FF01205BB020356
:1002D300CA900002E0FF9000C3E40203B9900080DB
:1002E300E0900000F0C39000C4E094019000C3E0EC
:1002F300940050030203CA9000D3E4F0A304F00275
:1003030003CA900002E0900080F070030203CA90D9
:1003130000D27401F00203CA900000E0541FFFBF33
:100323000213900004E0247E7030E5D454BC4402F0
:10033300F5D40203CA0203C1900000E0541FFD700C
:100343001B900003E0FE900002E0FBEB64014E70A3
:10035300099008669320E56F80648062ED64027003
:1003630030900003E0FE900002E0FDED4E7020901F
:100373000005E0FE900004E0FDEDFFEE700FEF24BA
:100383007E700AE5D454BF4403F5D4803A802F80AD
:100393002D802B900000E4F0A3F09000C3E0FEA3B7
:1003A300E0FFC39402EE94009000D34008E4F0A36E
:1003B3007402F08012EEF0A3EFF0800B8000900047
:1003C300D3E4F0A374FFF09000D3E0FEA3E0FFF4C6
:1003D3004E700C9000C574FFF075DCCF020492D30D
:1003E300EF9440EE940050048FDD800375DD0075BB
:1003F300DCC00204929000C5E024FB606E14707AA6
:100403009000C3E0FEA3E0FFC39440EE9400400CD1
:100413007C007D40CEECCECFEDCF80009000D3EEBC
:10042300F0A3EFF09000D3E0FEA3E0FFC87400C890
:10043300CC7400CCCD7401CD9000CFE0FBA3E0FAE7
:10044300A3E0F91205959000D3E0FEA3E0FFC3906B
:1004530000C4E09FF09000C3E09EF09000D0EE8FC8
:10046300F01205BB8FDD63DC4080249000C3A3E062
:10047300FFE5E354804FF5E3800375DD0075DC028F
:10048300800DAFDB9000D3E4F0A3EFF063DC80C218
:10049300D930D81475DC0275D40275E300C2DAC210
:1004A300D99000CEE4F0C2D830DA09C2DAE5DA3006
:1004B300E205800375D8FFD0D0D082D083D0F0D0AE
:1004C300E032E709F608DFFA8046E709F208DFFAC7
:1004D300803E88828C83E709F0A3DFFA8032E30948
:1004E300F608DFFA8078E309F208DFFA8070888281
:1004F3008C83E309F0A3DFFA806489828A83E0A313
:10050300F608DFFA805889828A83E0A3F208DFFACB
:10051300804C80D280FA80C680D4806980F2803398
:10052300801080A680EA809A80A880DA80E280CA60
:10053300803389828A83ECFAE493A3C8C582C8CC4A
:10054300C583CCF0A3C8C582C8CCC583CCDFE9DEA4
:10055300E7800D89828A83E493A3F608DFF9ECFA36
:10056300A9F0EDFB2289828A83ECFAE0A3C8C58255
:10057300C8CCC583CCF0A3C8C582C8CCC583CCDFA7
:10058300EADEE880DB89828A83E493A3F208DFF959
:1005930080CC88F0EF60010E4E60C388F0ED24023A
:1005A300B4040050B9F582EB2402B4040050AF2325
:1005B3002345822390051573C5F0F8A3E028F0C501
:1005C300F0F8E582158270021583E038F02275F0A9
:1005D30008758200EF2FFFEE33FECD33CDCC33CC45
:1005E300C58233C5829BED9AEC99E58298400CF560
:1005F30082EE9BFEED9AFDEC99FC0FD5F0D6E4CE8E
:10060300FBE4CDFAE4CCF9A88222B800C1B90059C1
:10061300BA002DEC8BF084CFCECDFCE5F0CBF9788E
:1006230018EF2FFFEE33FEED33FDEC33FCEB33FB22
:1006330010D703994004EB99FB0FD8E5E4F9FA22AC
:100643007818EF2FFFEE33FEED33FDEC33FCC933A7
:10065300C910D7059BE99A4007EC9BFCE99AF90F6F
:10066300D8E0E4C9FAE4CCFB2275F010EF2FFFEEDB
:1006730033FEED33FDCC33CCC833C810D7079BEC26
:100683009AE899400AED9BFDEC9AFCE899F80FD59E
:10069300F0DAE4CDFBE4CCFAE4C8F922ECF0A3ED04
:1006A300F0A3EEF0A3EFF022A8828583F0D083D0ED
:1006B300821206C21206C21206C21206C2E473E412
:1006C30093A3C583C5F0C583C8C582C8F0A3C583FA
:1006D300C5F0C583C8C582C822787FE4F6D8FD7506
:1006E300810F020723020003E493A3F8E493A340DA
:1006F30003F68001F208DFF48029E493A3F854079A
:10070300240CC8C333C4540F4420C8834004F45694
:10071300800146F6DFE4800B0102040810204080CC
:10072300900768E47E019360BCA3FF543F30E50962
:10073300541FFEE493A360010ECF54C025E060A8CC
:1007430040B8E493A3FAE493A3F8E493A3C8C5825F
:10075300C8CAC583CAF0A3C8C582C8CAC583CADFCD
:10076300E9DEE780BE60400083070D000000000063
:100773000000000000000000000000000000000076
:100783000000000000000000000000000000000066
:100793000000000000000000000000000000000056
:1007A3000000000000000000004100CE0000C2EA8B
:1007B300E4F5E275D18053D1FB53E2BFCE7400CE92
:1007C300CF7440CF8EE58FE4E5EB54FE4404F5EBA4
:1007D300CE7400CECF7400CF8EED8FEC53EAF3E4EA
:1007E300F5E343E22943D10175D8FF75E107D2EA66
:1007F30022C87480C8CC7400CCCD7401CD7B017A3F
:100803000079837E007F4012059575D50353D4FC90
:1008130022CDEFCDCCEECCED4C600E7FE87E031203
:10082300083FED1D70F11C80EE2275A15575A1AA3C
:10083300E5B954F84404F5B9E4F5A122EF4E600993
:1008430005A1EF1F70F61E80F322120110010000B4
:100853000040B238018001000102030109022900AE
:100863000101008032090400000103000000092196
:100873000001000122610107058203400001040316
:1008830009040A034D005A0059003700200355009C
:100893005300420020004800490044002000420069
:1008A3006100740074006500720079001C03540039
:1008B3005300480045002D00300030003100310066
:1008C30034003500310034000A034C0049004F0066
:1008D3004E0005840904A1010924A10275089501AC
:1008E300150026FF00850109FE7902B1238502095F
:1008F300FF7903B123850309FD7901B123058585BB
:1009030006098BB123851F09897904B12385200941
:100913008F7900B1238516092CB1238510098D2603
:100923006400B1228518098EB123850E0967B1834E
:1009330085170983B183850C096681A30966B1A371
:10094300850F098CB1A285110929B1A2851A096AFB
:10095300751027FFFF00006601105500B1A3851C29
:10096300096981A30969B1A3850D096881A3096890
:10097300B1A38508092A75102764050000167800BD
:100983008122092AB1A20584850A0940150027FF9F
:10099300FF00006721D1F0005505B123850B093015
:1009A30081A30930B1A30902A10285070585094482
:1009B3007501150025016500550081A30944B1A304
:1009C300094581A30945B1A309D081A309D0B1A3E6
:1009D30009D181A309D1B1A3094281A30942B1A3DA
:1009E300094381A20943B1A2094B81A3094BB1A3D6
:1009F30009DB81A309DBB1A3094681A30946B1A39E
:100A0300094781A30947B1A30584096881A209683D
:100A1300B1A2096981A30969B1A3097381A3097308
:100A2300B1A3096581A30965B1A395028101B10150
:030A3300C0C0C080
:00000001FF
