:10000000020B37E49000A4F0D2967F02FE120E0C91
:10001000D2977F027E00120E0C3096129000A4E060
:1000200004F0E0D394FA40F1120DB47F0122C2979C
:0D0030007F027E00120E0C7F0022020DFAEE
:10004300020046C0E0C0F0C083C082C0D075D008B3
:1000530020D903020596E5D9543F7003020587248E
:10006300E070030204FA24F0600302059475DCC017
:10007300AFDB9000A1E4F0A3EFF09000A1E07004E7
:10008300A3E0640860030204C3900007E0FE90004D
:1000930006E0FDEDFF900048EEF0A3EFF09000A125
:1000A300E4F0A3F0900001E090004FF0900000E036
:1000B3005460700302025290004FE024FE7003026A
:1000C300021814700302021824FA24FD40030202EA
:1000D30018240B600302020F900002E0FF120B11C1
:1000E30001330601080701490A016A0B01B50C0136
:1000F3001C0D019E0E01CC10013616018B1701CC8D
:1001030018000001E6900050EFF090009EE0A3E09D
:10011300900051F090009E8042900002E0900050C9
:10012300F0900099E0A3E0900051F0900099802BAB
:100133000201CC900002E0900050F0A37402F09012
:10014300009B140201DB900002E0900050F090004D
:1001530043E0A3E0900051F0900043E0900052F0A0
:1001630090009B74018071900002E0900050F09029
:100173000046E0A3E0900051F0900046E09000526A
:10018300F090009B74018050900002E0900050F0CA
:10019300A37464F090009B7401803D900002E09092
:1001A3000050F0900090E0900051F090009B74019B
:1001B3008026900002E0900050F090004CE0900008
:1001C30051F090009B7401800F900002E09000506A
:1001D300F0A37401F090009BF0A37400F0A374509B
:1001E300F080079000A1E4F0A3F0900048E0FEA3A4
:1001F300E0FFC39440EE94009000A14008E4F0A314
:100203007440F08010EEF0A3EFF080099000A1E4B9
:10021300F0A374FFF09000A1E0FEA3E0FFD39000F1
:1002230049E09F900048E09E4005EEF0A3EFF09078
:100233000048E0FEA3E0FFC39440EE9400400D7C31
:10024300007D40CEECCECFEDCF0203B60203B690D5
:10025300004FE0B40B0040030204C1900265F8288C
:1002630028730204980204480204C10204560204DB
:10027300C10204010202860204C102040D02043217
:100283000204CC900003E024FE602B14604224E1BE
:10029300700302035D2421600302037790009B74C3
:1002A300FFF0A3740EF0A3741AF09000A1E4F0A37E
:1002B3007412F002038090009B74FFF0A3740EF09D
:1002C300A3742CF09000A1E4F0A3741BF00203804C
:1002D300900002E0606B24FE601C146032146048DE
:1002E3002403600302037790009B74FFF0A3740E52
:1002F300F0A3744B803F90009B74FFF0A3740EF047
:10030300A37455F09000A1E4F0A37420F0806E90E4
:10031300009B74FFF0A3740EF0A37475F09000A11A
:10032300E4F0A3741CF0805590009B74FFF0A37459
:100333000EF0A37491F09000A1E4F0A3740AF0808E
:100343003C90009B74FFF0A3740EF0A37447F090ED
:1003530000A1E4F0A37404F0802390009B74FFF0E9
:10036300A3740EF0A3749BF09000A17401F0A37426
:1003730043F080099000A1E4F0A374FFF09000A182
:10038300E0FEA3E0FFD3900049E09F900048E09E89
:100393004005EEF0A3EFF0900048E0FEA3E0FFC3BA
:1003A3009440EE9400400C7C007D40CEECCECFED2B
:1003B300CF80009000A1EEF0A3EFF09000A1E0FE4B
:1003C300A3E0FFC87400C8CC7400CCCD7401CD90F9
:1003D300009BE0FBA3E0FAA3E0F912096D9000A1F2
:1003E300E0FEA3E0FFC3900049E09FF0900048E0E7
:1003F3009EF090009CEE8FF01209E20204CC900074
:1004030002E0FF900048E40204BB900040E090004B
:1004130000F0C3900049E09401900048E09400503C
:10042300030204CC9000A1E4F0A304F00204CC90F6
:100433000002E0900040F070030204CC9000A0742E
:1004430001F00204CC900000E0541FFFBF020280C1
:100453006F806D900000E0541FFD701B900003E05F
:10046300FE900002E0FBEB64014E7009900E3393A3
:1004730020E556804B8049ED64027017900003E03D
:10048300FE900002E0FDED4E7007900004E0FD8059
:100493002F802D802B900000E4F0A3F0900048E023
:1004A300FEA3E0FFC39402EE94009000A14008E491
:1004B300F0A37402F08012EEF0A3EFF0800B800043
:1004C3009000A1E4F0A374FFF09000A1E0FEA3E08C
:1004D300FFF44E700C90004F74FFF075DCCF0205F3
:1004E30094D3EF9440EE940050048FDD800375DDC8
:1004F3000075DCC002059490004FE024FB606E148D
:10050300707A900048E0FEA3E0FFC39440EE9400AD
:10051300400C7C007D40CEECCECFEDCF8000900030
:10052300A1EEF0A3EFF09000A1E0FEA3E0FFC874FA
:1005330000C8CC7400CCCD7401CD90009BE0FBA32C
:10054300E0FAA3E0F912096D9000A1E0FEA3E0FF39
:10055300C3900049E09FF0900048E09EF090009C1B
:10056300EE8FF01209E28FDD63DC408024900048B7
:10057300A3E0FFE5E354804FF5E3800375DD0075E9
:10058300DC02800DAFDB9000A1E4F0A3EFF063DCAD
:1005930080C2D930D80C75DC0275E300C2DAC2D947
:1005A300C2D830DA09C2DAE5DA30E205800375D859
:1005B300FFD0D0D082D083D0F0D0E032EC4D6011A8
:1005C300E8497017ED33EC3304600DE4FCFFFEFDE6
:1005D30022E933E8330470F80208881208535804F8
:1005E3006009E4CC2481500628500902089228406F
:1005F3000302088FC0E0EB4A7044B98006D0E0FBE9
:1006030002087EEF4E701CBD8008EBFFEAFEE9FD99
:1006130080EBE98DF0A4FEE5F00206A8E9CDF9EA46
:10062300FEEBFFEF89F0A4FCE5F0CE89F0A42EFFEA
:10063300E435F0CD89F0A42DFEE435F08067EF4E6C
:100643007005BD80D780C3EF8BF0A4ACF0EE8BF0C8
:10065300A42CFCE435F0F8EF8AF0A42CE5F038FC88
:10066300E433CB8DF0A42CFCE5F03BF8EE8AF0A448
:100673002CFCE5F038F8E433CF89F0A42CFCE5F04A
:1006830038CF3400CE89F0A42FFFE5F03EFEE433EB
:10069300C98DF0A42EFEE5F039CD8AF0A42FFFE535
:1006A300F03EFEE43DFD33D0E0FB50070BBB000FF3
:1006B300020892EC2CFCEF33FFEE33FEED33FD0228
:1006C300086A020892EC5D046005E85904700302AD
:1006D3000888120853580460F6EC4860F2EC700482
:1006E300FDFEFF22C860DB2481C85009C398600265
:1006F300500602088F9850CAF582E9294B4A7005C3
:10070300AB8202087E75F0007C1A7880C3EF9BEE03
:100713009AED99400DC3EF9BFFEE9AFEED99FDE82C
:1007230042F0DC23ACF0D0E0FFD0E0FED0E0FDAB44
:100733008220E7101BEB60BAEC2CFCEF33FFEE33A7
:10074300FEED33FD02086AE803F830E705C0F075F3
:10075300F000EF2FFFEE33FEED33FD40B830E7C27C
:1007630080AA74F8CC6480CCC86480C8F582046025
:100773004FC3EB9FF5F0EA9E42F0E99D42F0E89CFF
:1007830045F0603C501DE5825FFFE582D313CB5BF0
:10079300CBF42B5582FB50280ABA002409B9002058
:1007A30008801DE5825BFBE582D313CF5FCFF4C3E3
:1007B300132F5582FF50090EBE00050DBD00010C1D
:1007C300C3EB9FF5F0EA9E42F0E99D42F0E89C45B9
:1007D300F06007CC4820E701B3EC2275F020800ECF
:1007E30075F010800575F0087D007E007F00339260
:1007F300D530D503120AC6EC334010EF33FFEE3386
:10080300FEED33FDEC33FCD5F0ED22E5F0247EA2C2
:10081300D513CC92E7CDCEFF22EDD2E7CD33EC3327
:1008230092D524814006E4FFFEFDFC22FCE4CFCEFA
:10083300CDCC24E0501174FF80EDC3CC13CCCD1389
:10084300CDCE13CECF13CF0470F030D5DE020AC65F
:10085300E9D2E7C933E833F892D5EDD2E7CD33ECEB
:1008630033FC5002B2D522EC30E7100FBF000C0E60
:10087300BE00080DBD00040BEB6014A2D5EB13FC06
:10088300ED92E7FD2274FFFCFDFEFF22E480F8A257
:10089300D574FF13FC7D80E480EFE709F608DFFAE7
:1008A3008046E709F208DFFA803E88828C83E709F5
:1008B300F0A3DFFA8032E309F608DFFA8078E30970
:1008C300F208DFFA807088828C83E309F0A3DFFAF1
:1008D300806489828A83E0A3F608DFFA80588982DC
:1008E3008A83E0A3F208DFFA804C80D280FA80C6C4
:1008F30080D4806980F28033801080A680EA809A59
:1009030080A880DA80E280CA803389828A83ECFA05
:10091300E493A3C8C582C8CCC583CCF0A3C8C58261
:10092300C8CCC583CCDFE9DEE7800D89828A83E406
:1009330093A3F608DFF9ECFAA9F0EDFB2289828A8A
:1009430083ECFAE0A3C8C582C8CCC583CCF0A3C8A6
:10095300C582C8CCC583CCDFEADEE880DB89828A26
:1009630083E493A3F208DFF980CC88F0EF60010EF3
:100973004E60C388F0ED2402B4040050B9F582EB55
:100983002402B4040050AF23234582239008ED735F
:10099300BB010CE58229F582E5833AF583E0225019
:1009A30006E92582F8E622BBFE06E92582F8E22263
:1009B300E58229F582E5833AF583E49322F8BB01C6
:1009C3000DE58229F582E5833AF583E8F0225006A6
:1009D300E92582C8F622BBFE05E92582C8F222C5B5
:1009E300F0F8A3E028F0C5F0F8E58215827002154F
:1009F30083E038F02275F008758200EF2FFFEE33A5
:100A0300FECD33CDCC33CCC58233C5829BED9AEC7E
:100A130099E58298400CF582EE9BFEED9AFDEC99E8
:100A2300FC0FD5F0D6E4CEFBE4CDFAE4CCF9A882F2
:100A330022B800C1B90059BA002DEC8BF084CFCE97
:100A4300CDFCE5F0CBF97818EF2FFFEE33FEED3355
:100A5300FDEC33FCEB33FB10D703994004EB99FB1C
:100A63000FD8E5E4F9FA227818EF2FFFEE33FEED05
:100A730033FDEC33FCC933C910D7059BE99A400712
:100A8300EC9BFCE99AF90FD8E0E4C9FAE4CCFB2229
:100A930075F010EF2FFFEE33FEED33FDCC33CCC8F2
:100AA30033C810D7079BEC9AE899400AED9BFDECFD
:100AB3009AFCE899F80FD5F0DAE4CDFBE4CCFAE43C
:100AC300C8F922C3E49FFFE49EFEE49DFDE49CFC81
:100AD30022ECF0A3EDF0A3EEF0A3EFF022A88285C1
:100AE30083F0D083D082120AF7120AF7120AF712A0
:100AF3000AF7E473E493A3C583C5F0C583C8C5822D
:100B0300C8F0A3C583C5F0C583C8C582C822D083F6
:100B1300D082F8E4937012740193700DA3A393F839
:100B2300740193F5828883E4737402936860EFA37E
:100B3300A3A380DF787FE4F6D8FD75810F020B7ED7
:100B4300020C26E493A3F8E493A34003F68001F296
:100B530008DFF48029E493A3F85407240CC8C333B3
:100B6300C4540F4420C8834004F456800146F6DF82
:100B7300E4800B0102040810204080900D43E47EC2
:100B8300019360BCA3FF543F30E509541FFEE49377
:100B9300A360010ECF54C025E060A840B8E493A33E
:100BA300FAE493A3F8E493A3C8C582C8CAC583CA69
:100BB300F0A3C8C582C8CAC583CADFE9DEE780BE21
:100BC3007D067F01120BCD0D7F01EF14601C1460B5
:100BD3002B14603C2403704AC8EDC87401088002DA
:100BE300C333D8FCF45292529322C8EDC87401085F
:100BF3008002C333D8FCFFF452928023C8EDC8743B
:100C030001088002C333D8FCFF4292EFF4529322CF
:100C1300C8EDC87401088002C333D8FCFF4292EFC9
:100C2300429322120DE87F057E00120DCF120D159F
:100C3300D2AFE4F5D5900042F09000A0F07D057F9F
:100C430001120BCD12003A120D92EF701B7FF47E4E
:100C530001120DCF120D92EF700E120C837FF47EF2
:100C630001120DCFB29580ECC2959000A0E0600711
:100C73007F647E00120DCF7F647E00120DCF80EA69
:100C8300120BC3D296E49000A3F07F147E00120EE1
:100C93000CC2977F147E00120E0CD2979000A3E033
:100CA30004F0E0C3940940E27F147E00120E0CC2EC
:100CB30097C296120BC37F147E00120E0CD2977F3D
:100CC300147E00120E0CD296020DFA9000A4EFF0DF
:100CD300C297E4A3F09000A4E0FF30E704D296802B
:100CE30002C296EF25E09000A4F07F027E00120E70
:100CF3000CD2977F027E00120E0CC2977F027E00F9
:100D0300120E0C9000A5E004F0E0C3940840C6D294
:100D13009622C2EAE4F5E275D18053D1FB53E2BFD8
:100D2300CE7400CECF7400CF8EED8FEC53EAF3F583
:100D3300E343E22943D10175D8FF75E107D2EA22E3
:100D43004100450042009E00084200990000420015
:100D53004A000042004D0000420043045642004650
:100D630004564100906441004C2C00D2967F027ED1
:100D730000120E0CD2977F027E00120E0CC2967FD9
:100D8300027E00120E0CC2977F027E00020E0C122E
:100D93000D6E7F16120CCE120003EF7F0070027FE0
:100DA300019000A3EFF06003120DB49000A3E0FFE5
:100DB30022C2967F027E00120E0CD2977F027E0023
:100DC300120E0CD2967F027E00020E0CCDEFCDCC1C
:100DD300EECCED4C600E7FE87E03120E0CED1D7021
:100DE300F11C80EE2275A15575A1AAE5B954F8440A
:100DF30004F5B9E4F5A1227D067F03120BCD0D7F27
:100E030003120BCDD296D29722EF4E600905A1EFC4
:100E13001F70F61E80F3221201100100000040B281
:100E230038018001000102030109021B00010100D6
:100E330080320904000000030000000921000100C2
:100E430001224301040309040A034D005A00590017
:100E5300370020035500530042002000480049009A
:100E630044002000420061007400740065007200B9
:100E730079001C0354005300480045002D00300046
:100E830030003100310034003500310034000A03F2
:100E93004C0049004F004E0005840904A1010924B8
:100EA300A10275089501150026FF00850109FE7949
:100EB30002B123850209FF7903B123850309FD7973
:100EC30001B12305858506098BB123851F0989791E
:100ED30004B1238520098F7900B1238516092CB12C
:100EE300238510098D266400B1228518098EB1234C
:100EF300850E0967B18385170983B183850C09665C
:100F030081A30966B1A3851A096A751027FFFF003B
:100F1300006601105500B1A3851C096981A3096905
:100F2300B1A3850D096881A30968B1A30584850A66
:100F330009407510150027FFFF00006721D1F0005D
:100F43005505B123850B093081A30930B1A30902EB
:100F5300A102850705850944750115002501650072
:100F6300550081A30944B1A3094581A30945B1A350
:100F730009D081A309D0B1A309D181A309D1B1A318
:100F8300094281A30942B1A3094381A20943B1A242
:100F9300094B81A3094BB1A309DB81A309DBB1A3EE
:100FA300094681A30946B1A3094781A30947B1A310
:100FB3000584096881A20968B1A2096981A3096945
:100FC300B1A3097381A30973B1A3096581A309655A
:0B0FD300B1A395028101B101C0C0C0B4
:00000001FF
